:020000040800F2
:100000000020002021010008D5160008D71600089E
:10001000D9160008DB160008DD16000800000000F5
:10002000000000000000000000000000DF160008D3
:10003000E116000800000000E3160008E5160008BD
:10004000E3140008E3140008E3140008E3140008B4
:10005000E3140008E3140008E7160008E31400089E
:10006000E3140008E3140008E3140008EB1600088A
:10007000E3140008E3140008E3140008E314000884
:10008000E3140008E3140008E31400080000000073
:10009000000000000000000000000000E314000861
:1000A000E3140008E3140008E3140008E314000854
:1000B000E3140008E3140008E3140008E314000844
:1000C000E3140008E3140008E3140008E314000834
:1000D000E3140008E9160008E3140008E31400081C
:1000E000E3140008E3140008E31400080000000013
:1000F0000000000000000000000000000000000000
:1001000000000000000000000000000000000000EF
:100110000000000000000000E3140008E3140008E1
:10012000014880470148004739120008558A0008F5
:1001300008B540F2B050074BC2F200001B1A062B64
:1001400000D808BD40F20003C0F20003002BF8D035
:100150009847F6E7B305002008B540F2B05040F2EA
:10016000B053C2F20000C2F200031B1A9B1003EB53
:10017000D373591000D108BD40F20002C0F2000252
:10018000002AF8D09047F6E710B540F2B054C2F21A
:100190000004237873B9FFF7CBFF40F20003C0F2ED
:1001A00000032BB148F61850C0F60000AFF30080F2
:1001B0000123237010BD00BF08B540F20003C0F258
:1001C00000034BB148F6185040F2B451C0F600009D
:1001D000C2F20001AFF3008040F20000C2F2000062
:1001E00003682BB140F20003C0F2000303B198474B
:1001F000BDE80840B0E700BF40F0BF60024B40F4EC
:100200000030D860704700BF00ED00E0C27810B544
:100210000378FAB1154A4478D26803F16043D243B7
:10022000C2F30222C2F1040104FA01F10F2424FAFC
:1002300002F2847803F5614322400A431201D2B2EC
:1002400083F8002303780122590903F01F0302FAFF
:1002500003F306E05909012203F01F0302FA03F336
:100260002031034A42F8213010BD00BF00ED00E00C
:1002700000E100E021F0604121F07F01014B0843E3
:100280009860704700ED00E0044B1A6909B1104313
:1002900001E022EA00001861704700BF00ED00E0B5
:1002A000044B04281A680CBF42F0040222F0040236
:1002B0001A60704710E000E008B5134B984207D170
:1002C0004FF40070012100F019FD4FF4007014E0AC
:1002D0000E4B984207D14FF48060012100F00EFDD3
:1002E0004FF4806009E00A4B98420BD14FF4004074
:1002F000012100F003FD4FF400400021BDE808405B
:1003000000F0FCBC08BD00BF0024014000280140F3
:10031000003C014042680B6822F4702222F4807293
:1003200013430A7910B543EA022343608A68CB6815
:1003300084681A43084B234013434A7943EA420333
:1003400083600B7CC26A013B22F47002DBB242EA9A
:100350000353C36210BD00BFFDF7F1FF002303602C
:10036000037143718360C360012303747047836822
:1003700011B143F0010301E023F0010383607047F2
:10038000836811B143F4807301E023F480738360C8
:100390007047C9B243680AB1194301E023EA010179
:1003A00041607047836843F008038360704780684A
:1003B000C0F3C0007047836843F004038360704754
:1003C0008068C0F380007047836811B143F4A003D4
:1003D00001E023F4A003836070478068C0F380507D
:1003E00070474368013923F4604343EA4133436073
:1003F0007047436811B143F4006301E023F40063E4
:1004000043607047092970B54FF003040CD9A1F17E
:100410000A056C430725A54003FA04F4C66826EADA
:1004200005052C43C4600AE04C430725A54003FAA8
:1004300004F4066926EA050545EA04030361062A71
:100440000CD80523013A5A431F23934001FA02F2C4
:10045000446B24EA03031A43426370BD0C2A4FF035
:1004600005030BD8073A53431F249C4001FA03F3BA
:10047000056B25EA04042343036370BD0D3A5A4318
:100480001F23934001FA02F2C46A24EA03031A43C9
:10049000C26270BD836811B143F4801301E023F49C
:1004A000801383607047C06C80B27047014B18683E
:1004B000704700BF4C240140436811B143F480638E
:1004C00001E023F4806343607047436811B143F453
:1004D000805301E023F4805343607047836823F422
:1004E000E043194381607047836811B143F40043CE
:1004F00001E023F4004383607047836811B143F443
:10050000021301E023F40213836070478068C0F394
:1005100040507047092970B54FF003040CD9A1F180
:100520000A056C430725A54003FA04F4C66826EAC9
:1005300005052C43C4600AE04C430725A54003FA97
:1005400004F4066926EA050545EA04030361846BA1
:100550000232C4F30153D31ADBB2052253431F22E4
:100560009A40994024EA020444EA0103836370BD7F
:10057000836B013923F4401343EA015383637047CB
:1005800082B0002301930190019B19440191019BCA
:100590001A6002B0704782B0002301930190019B62
:1005A000283319440191019B186880B202B070474A
:1005B000436823F4400323F40073194341607047F8
:1005C000416282627047436823F01F031943416010
:1005D0007047054B9A6810B142F4000201E022F422
:1005E00000029A60704700BF00240140036819426E
:1005F0000CBF002001207047C94301607047436869
:10060000006810EA112004D0C9B219420CBF0020C2
:10061000012070476FEA11210160704702684FF6B0
:10062000FE73134003600023036043608360C36074
:100630002A4B984222D02A4B984229D0294B9842E3
:1006400030D0294B984237D0284B98423ED0284B87
:10065000984206D153F8682C42F4700243F8682C93
:100660007047244B984206D153F87C2C42F07062BC
:1006700043F87C2C7047204B984206D153F8042C49
:1006800042F00F0243F8042C70471C4B984206D1ED
:1006900053F8182C42F0F00243F8182C7047184B0E
:1006A000984206D153F82C2C42F4706243F82C2C5B
:1006B0007047144B984206D153F8402C42F47042D4
:1006C00043F8402C7047104B984205D153F8542CF6
:1006D00042F4702243F8542C704700BF08000240D7
:1006E0001C0002403000024044000240580002401A
:1006F0006C00024080000240080402401C040240DA
:1007000030040240440402405804024070B58C6832
:100710000D6A066845EA04020C698B6A22434C693B
:1007200026F4FF4622438C6926F070062243CC69EA
:1007300014434A6A2243134333430360CB68436044
:100740000B6883604B68C36070BD00230360436027
:100750008360C360036143618361C3610362436279
:100760008362704719B1036843F0010303E0026834
:100770004FF6FE7313400360704703680AB11943D4
:1007800001E023EA01010160704741607047406861
:1007900080B27047C3004CBF034B044B1B6803423D
:1007A0000CBF0020012070470004024000000240FE
:1007B000C2004CBF014B024B58607047000402401E
:1007C00000000240C1004CBF034B044B1B680342B6
:1007D0000CBF0020012070470004024000000240CE
:1007E000C3004CBF014B024B5860704700040240ED
:1007F0000000024008B5234B984205D10420012196
:1008000000F07CFA042036E01F4B984205D1082006
:10081000012100F073FA08202DE01C4B984205D10D
:100820001020012100F06AFA102024E0184B9842B1
:1008300005D12020012100F061FA20201BE0154B9A
:10084000984205D14020012100F058FA402012E0E2
:10085000114B984205D18020012100F04FFA8020F1
:1008600009E00E4B98420BD14FF48070012100F04B
:1008700045FA4FF480700021BDE8084000F03EBA10
:1008800008BD00BF00080140000C014000100140FD
:100890000014014000180140001C014000200140EC
:1008A00008B50120014600F029FABDE80840012002
:1008B000002100F023BACB782DE9F043DA0648BFD7
:1008C0008A78098803F00F0548BF154311F0FF0F20
:1008D0001FD0046800224FF0010C4FF00F080CFAF3
:1008E00002F707EA0106BE420FD1970008FA07F99E
:1008F00005FA07F724EA0904282B44EA070401D182
:10090000466102E0482B08BF06610132082AE6D1A1
:100910000460FF2921D9446800224FF0010C4FF0F8
:100920000F0802F108070CFA07F707EA0106BE42B2
:100930000FD1970008FA07F905FA07F724EA090426
:10094000282B44EA070401D1466102E0482B08BF86
:1009500006610132082AE4D14460BDE8F0834FF615
:10096000FF730380022383700423C370704783687E
:1009700019420CBF002001207047806880B2704788
:10098000C36819420CBF002001207047C06880B2C4
:10099000704701617047416170470AB1016170475A
:1009A00041617047C160704741F480338361816168
:1009B0008361836983697047054A10B514684FF6EF
:1009C00080732340194341EA0010106010BD00BF3E
:1009D00000000140014B1860704700BF1C0020421E
:1009E0000028164A30B500F44015B4BFD3695368E7
:1009F000B5F5401F84B206D1556823F0706325F029
:100A0000706555600FE0C50205D5C0F303420325AC
:100A100005FA02F203E0420D120104FA02F223EA9F
:100A2000020343F0706319B1420D12019440234355
:100A3000024A0028B4BFD361536030BD00000140BA
:100A400001F003039B000F229A40984001F0FC0143
:100A500001F1804101F5803110B58C6824EA020271
:100A60008A608A6802438A6010BD014B1860704733
:100A7000DC0020420E4B1A6842F001021A605968ED
:100A80000C4A0A405A601A6822F0847222F48032BA
:100A90001A601A6822F480221A605A6822F4FE0250
:100AA0005A604FF41F029A600022DA62704700BF5A
:100AB000001002400000FFF80C4BB0F5803F1A68B0
:100AC00022F480321A601A6822F480221A6003D05D
:100AD000B0F5802F04D070471A6842F4803202E0EB
:100AE0001A6842F4A0221A60704700BF001002404A
:100AF000034B1A6822F0F80242EAC00018607047FF
:100B000000100240014B1860704700BF00004242D5
:100B1000034B5A6822F4741211430843586070471B
:100B200000100240014B1860704700BF6000424255
:100B3000044BDA6A22F4803222F00F021143084398
:100B4000D862704700100240034B5A6822F003023B
:100B500010435860704700BF00100240024B5868B5
:100B600000F00C00704700BF00100240034B5A68B1
:100B700022F0F00210435860704700BF001002409E
:100B8000034B5A6822F4E06210435860704700BF7C
:100B900000100240034B5A6822F4605242EAC0003F
:100BA0005860704700100240044B1A7809B1104396
:100BB00001E022EA00001870704700BF09100240EF
:100BC000014B1860704700BFD8004242034B5A687F
:100BD00022F4404210435860704700BF00100240AA
:100BE000064B002201281A701A7002D0042802D085
:100BF00070471870704705221A7070472010024025
:100C0000014B1860704700BF80044242024B1A6AD1
:100C100010431862704700BF00100240014B18607B
:100C2000704700BF3C0442421E4B10B55A6802F0A8
:100C30000C02042A01D0082A02D01B4B036012E0E8
:100C40005A685968C2F38342C90302F1020201D40F
:100C5000164B06E0DB6A144903F00F030133B1FBC6
:100C6000F3F35A4302600F4A114B5168C1F3031169
:100C70005C5C0168E14041605468C4F302241C5D7F
:100C800021FA04F484605468C4F3C2241C5DE1407A
:100C9000C1605268C2F3813213441B7CB1FBF3F193
:100CA000016110BD0010024000127A0000093D00F1
:100CB00004000020044B5A6909B1104301E022EA04
:100CC00000005861704700BF00100240044B9A6951
:100CD00009B1104301E022EA00009861704700BFAB
:100CE00000100240044BDA6909B1104301E022EA26
:100CF0000000D861704700BF00100240044BDA6862
:100D000009B1104301E022EA0000D860704700BF3B
:100D100000100240044B1A6909B1104301E022EAB5
:100D200000001861704700BF00100240014B1860BE
:100D3000704700BF40044242014B1860704700BF3B
:100D40004C004242014B1870704700BF0710024030
:100D50004309012B074A01D1136803E0022B0CBFA2
:100D6000136A536A00F01F0023FA00F000F001003C
:100D7000704700BF0010024007B5002301933120E7
:100D8000FFF7E6FF019B01330193019BB3F5A06FD1
:100D900001D00028F3D03120FFF7DAFF003018BF70
:100DA000012003B05DF804FB024B5A6A42F08072E6
:100DB0005A62704700100240034B9B6818420CBFF8
:100DC00000200120704700BF00100240014B187046
:100DD000704700BF0A10024008B5204B98420BD163
:100DE0004FF480400121FFF789FFBDE808404FF430
:100DF00080400021FFF782BF194B984207D14FF482
:100E000000300121FFF786FF4FF400301FE0154B43
:100E1000984207D14FF480200121FFF77BFF4FF468
:100E2000802014E0104B984207D14FF4002001219C
:100E3000FFF770FF4FF4002009E00C4B98420BD1F4
:100E40004FF480100121FFF765FF4FF4801000215F
:100E5000BDE80840FFF75EBF08BD00BF0038014095
:100E60000044004000480040004C0040005000405A
:100E7000038ACA889BB223F44053134330B50382DC
:100E800083890D46AA88098923F4B0530A4323F0C5
:100E90000C0369891B040A431B0C13439BB2838117
:100EA000838AAA899BB223F4407387B01343044614
:100EB000838201A8FFF7B8FE1749049A039B8C426E
:100EC00008BF1346A289192112B25943002A2A6881
:100ED0004FF06403B4BF52009200B1FBF2F1B1FBDA
:100EE000F3F21201100903FB1011A08900B20028CF
:100EF00006DAC9003231B1FBF3F303F0070305E072
:100F000009013231B1FBF3F303F00F031A4392B23C
:100F1000228107B030BD00BF003801404FF41653A6
:100F200003600C2200238380C3800381428183817C
:100F300070470B8810B54C88028A23438C88C98877
:100F400092B223430B4322F4706213439BB2038299
:100F500010BD0023038043808380C3807047838952
:100F600019B19BB243F4005303E023F400531B0474
:100F70001B0C83817047C1F3421310B5012401F0AB
:100F80001F01A34204FA01F101D10C3003E0022B4E
:100F90000CBF1030143003680AB1194301E023EA92
:100FA0000101016010BD838A9BB20AB1194301E0BF
:100FB00023EA010181827047038A23F00F031B0497
:100FC0001B0C0382038A9BB21943018270478389F9
:100FD00023F400631B041B0C838183899BB2194398
:100FE00081817047838919B19BB243F0020303E00A
:100FF00023F002031B041B0C83817047038A23F038
:1010000020031B041B0C0382038A9BB21943018239
:101010007047038A19B19BB243F4804303E023F481
:1010200080431B041B0C03827047C1F308018180BD
:1010300070478088C0F30800704783899BB243F0F3
:10104000010383817047038BDBB20383038B9BB265
:1010500043EA012101837047038B03F47F43038339
:10106000038B9BB2194301837047838A19B19BB2EA
:1010700043F0200303E023F020031B041B0C8382B6
:101080007047838A19B19BB243F0100303E023F049
:1010900010031B041B0C83827047838A19B19BB217
:1010A00043F0080303E023F008031B041B0C8382B6
:1010B0007047838929B16FEA43436FEA53439BB278
:1010C00001E0C3F30E0383817047838A19B19BB299
:1010D00043F4006303E023F400631B041B0C8382CE
:1010E0007047838A23F004031B041B0C8382838ACA
:1010F0009BB2194381827047838A19B19BB243F036
:10110000020303E023F002031B041B0C83827047DD
:10111000038819420CBF002001207047C94389B2DF
:101120000180704710B5C1F3421401F01F03012282
:10113000012C02FA03F201D1838903E0022C0CBFD7
:10114000038A838A9BB21340028892B243B101237F
:10115000090A03FA01F111420CBF0020012010BD61
:10116000184610BD090A01238B40DB439BB2038064
:10117000704700BF10B544F2050088B00121FFF7A9
:10118000A5FD1E4C4FF40073ADF8043018238DF804
:1011900007302046032301A98DF80630FFF78BFBAB
:1011A0004FF48063ADF8043004230DEB03012046B7
:1011B0008DF8073004F54054FFF77DFB02A8FFF7D8
:1011C000C8FE204602A9FFF7B4FE4FF416530C22C6
:1011D00004932046002304A9ADF81430ADF816306E
:1011E000ADF81830ADF81A20ADF81C30FFF740FE0E
:1011F00020460121FFF7B3FE08B010BD00080140F2
:10120000014608B50448FFF710FF03484021FFF7E7
:101210007FFF0028F9D008BD0038014008B5054817
:101220002021FFF775FF0028F9D00248FFF701FFE2
:10123000C0B208BD00380140324B82B01A6842F09B
:1012400001021A605968304A0A405A601A6822F04E
:10125000847222F480321A601A6822F480221A60A2
:101260005A6822F4FE025A604FF41F029A6000226C
:10127000DA62009201921A6842F480321A601A68A7
:1012800002F400320192009A01320092019A1AB9D6
:10129000009AB2F5A06FF2D11A4B1B6813F4003319
:1012A00018BF01230193019B012B05D0174B4FF071
:1012B00000629A6002B07047124B5A685A605A68CE
:1012C0005A605A685A605A6822F47C125A605A6806
:1012D00042F498125A601A6842F080721A601968D3
:1012E000084A8901FBD5536823F003035360536810
:1012F00043F002035360536803F00C03082BFAD148
:10130000D4E700BF001002400000FFF800ED00E04D
:10131000144A154B516801F00C01042901D0082929
:1013200002D0124A1A6012E051685068C1F383413A
:10133000C00301F1020101D40D4A06E0D26A0B4854
:1013400002F00F020132B0FBF2F251431960054A7C
:101350005268C2F303121A4411791A68CA401A601B
:10136000704700BF001002401800002000127A00F1
:1013700000093D004FF0FF307047034B0C221A600C
:101380004FF0FF30704700BF4C060020024B0B228D
:101390001A604FF0FF3070474C0600204FF40053A6
:1013A0004B600020704701207047022804D9034B8E
:1013B00009221A6000207047012070474C06002067
:1013C000024B16221A604FF0FF3070474C06002087
:1013D000024B1F221A604FF0FF3070474C0600206E
:1013E00000207047094B1A680AB9094A1A601A683E
:1013F000EFF308811044884205D9064B0C221A608D
:101400004FF0FF307047186010467047CC05002041
:10141000500600204C06002070B50E46154650B907
:101420000446AC4204DAFFF7F9FE30550134F8E720
:1014300025EAE57070BD034B09221A604FF0FF30BA
:1014400070BD00BF4C0600204FF400534B600020DD
:1014500070474FF0FF307047024B02221A604FF086
:10146000FF3070474C060020024B0A221A604FF0F2
:10147000FF3070474C060020012870B50E46154617
:1014800003D0022812D1002409E00024AC4204DA7F
:10149000305DFFF7B5FE0134F8E7284670BDAC4279
:1014A000FBDA305DFFF7ACFE0134F8E7024B0922AE
:1014B0001A604FF0FF3070BD4C06002008B50120C7
:1014C00002490422FFF7D8FFFEE700BFC08A0008E8
:1014D000FEE7FEE7FEE7FEE7FEE7FEE7FEE7FEE7E4
:1014E000FEE7FEE770B5012186B04FF40170FFF70B
:1014F000EDFB6846FFF733FA0025FF2331486946C4
:101500000124ADF8003008268DF80350FFF7D3F919
:101510004FF460232C4801A9039301958DF80840EE
:101520008DF8094004958DF81460FEF7F3FE264807
:10153000294622460423FEF765FF2348214602225E
:101540000423FEF75FFF2048022103220423FEF755
:1015500059FF042213461C480321FEF753FF0421C0
:101560000B4619480522FEF74DFF174805210622B4
:101570000423FEF747FF1448052107220423FEF742
:1015800041FF3246042310480721FEF73BFF0E4877
:101590002146FEF7ECFE0C482146FEF7F1FE0A4814
:1015A000FEF700FF0848FEF702FF0028FAD10648C0
:1015B000FEF701FF0448FEF703FF0028FAD106B04A
:1015C00070BD00BF000801400024014030B501207B
:1015D0001C4D8DB00146FFF76DFB2846FFF71EF846
:1015E0002023099304934FF40052174B0A924FF4AF
:1015F0008072079201934FF48062144B002408928A
:101600002846802201A9029306920B940594039424
:10161000FFF77CF8012228460221FFF7AEF82846A2
:101620000121FFF79FF80B238DF800306846012356
:101630008DF801408DF802408DF80330FEF7E6FD8D
:101640000DB030BD080002404C2401400C060020C3
:1016500038B5FFF78FFDFFF745FFFFF7B7FF1848D5
:101660000121FFF77FF817480121FEF7ADFE164A6A
:101670001368002BFCD013480021FEF7A5FE134D84
:10168000002404F1080335F8142035F8130004F1A0
:10169000100335F8131004F1180380B235F8133035
:1016A00092B289B202449BB20A441A4421460848C5
:1016B0009208013400F040F8082CE2D1FEE700BFA8
:1016C0000800024000240140D40500200C06002040
:1016D000C58A00087047FEE7FEE7FEE7FEE77047B1
:1016E0007047704770477047704708B50220FFF792
:1016F00069F830B1034B01201860BDE80840FFF7DE
:101700006FB808BDD40500200EB430B582B00446D1
:10171000059D18B183690BB902F024FD204606AC83
:101720002A4623468168019400F022F802B0BDE801
:10173000304003B0704700BF0FB440F22C03C2F238
:10174000000330B583B01C68069D24B1A36913B9AA
:10175000204602F007FD204607AC2A462346816852
:10176000019400F005F803B0BDE8304004B07047C4
:101770002DE9F04FC9B01C4689460B920C9002F03F
:101780008BFF14940068199004F0FEF90C9D1C90D6
:101790001DB1AB69002B00F01F8148F69833C0F6ED
:1017A0000003994500F0228148F67833C0F6000323
:1017B000994500F0DC8648F65833C0F60003994599
:1017C00004BF0C9DD5F80C90B9F80C309AB2950472
:1017D0000AD443F40053D9F86410A9F80C309AB233
:1017E00021F40051C9F86410100740F1CC80D9F8F9
:1017F0001030002B00F0C78002F01A020A2A00F015
:10180000CE8048F6E42438ADC0F6000416940DF1FD
:10181000DF040894169C38AF099548F6443504F166
:101820001006089C0023C0F60005129317953D1B77
:101830001B931D931A931E93159321952D932C930F
:101840002B97CDF840900B9D2B78252B18BF002BA4
:1018500000F0D0806A1C144601322378252B18BF73
:10186000002BF8D10B98251A0FD02C9B2D9A013301
:1018700087E82100072B2A442C93D8BF08372D92E4
:1018800000F3A0801599294415912378002B00F0CE
:1018900065840023651C1A468DF88F3013930A93D4
:1018A0002B4694F801904FF0FF340B950D940133C3
:1018B000A9F12001582900F23084DFE811F05B0221
:1018C0002E042E045A032E042E042E042E042E045D
:1018D0002E04610356032E045D0062022E04820270
:1018E00089028902890289028902890289028902A0
:1018F00089022E042E042E042E042E042E042E04FF
:101900002E042E042E049A02BB022E04BB022E04C7
:101910002E042E042E04F8022E042E04F9032E04A5
:101920002E042E042E042E0415042E042E046D0302
:101930002E042E042E042E042E042E042E042E0417
:101940002E042E0487039B03BB02BB02BB02B3031E
:101950009B032E042E04BA032E04CD034A02E10396
:10196000FF022E0406032E049D002E042E043003D5
:10197000139C1491644213940A9D45F004050A9542
:1019800093F8009093E70C98494601F0E9F9A0B963
:10199000B9F80C2002F01A020A2A7FF432AFB9F922
:1019A0000E30002BFFF62DAF0C9849460B9A2346BC
:1019B00001F098F949B0BDE8F08F4FF0FF3049B021
:1019C000BDE8F08F0C982BAA109904F049F9002873
:1019D00040F0EA8438AF55E7284602F0C3FB48F6EA
:1019E0009833C0F6000399457FF4DEAE0C9DD5F820
:1019F0000490E9E60B9C48E70A9D0B93AB0640F187
:101A00007C83149C0123E21D22F0070202F10805E9
:101A10001495D2E900454FF0000A8DF88FA00D9A79
:101A2000002AA2BF0A9820F080000A9054EA05011B
:101A30000D980CBF00220122002818BF42F00102BD
:101A4000002A00F0FF83012B00F01F85022B0DF10F
:101A5000DF0240F06281DDF868C004F00F01230965
:101A600043EA057328091CF801101C4605469046F8
:101A700054EA050002F1FF3288F80010EDD1099B0D
:101A8000C8EB030311930D9C119DA542B8BF2546D9
:101A900000240E951894BAF1000F02D00E9C013468
:101AA0000E940A9D15F002050F951EBF0E9C023480
:101AB0000E940A9C14F0840540F04E83139C0E98FB
:101AC000C0EB040BBBF1000F40F34683BBF1100FDA
:101AD00048F6E42A2D99DCBFC0F6000A2C9A34DDC2
:101AE000C0F6000ACDF87C90CDF880801024D8464E
:101AF0002C9AD346DDF84090AA46169D04E0A8F142
:101B00001008B8F1100F19DD01321031072A3D60BD
:101B10007C6007F108072C922D91F0DD0C98494666
:101B20002BAA38AF04F09CF8002840F02083A8F1DD
:101B300010082D99B8F1100F2C9AE5DC5546DDF808
:101B40007C90DA46C346DDF8808001320BEB01045D
:101B5000072A2C922D9487E8000C00F3F2829DF85E
:101B60008FA00837BAF1000F0ED02C9B0DF18F0219
:101B700001343A6001330122072B7A602D94D8BFDB
:101B800008372C9300F318840F9B6BB12C9B24AA6D
:101B900002343A6001330222072B7A602D94D8BFB9
:101BA00008372C9300F31384802D00F05E830D9D85
:101BB000119BC3EB050ABAF1000F43DDBAF1100F18
:101BC0002C9BDCBF9A4D0F9527DD994822461025A6
:101BD000DDF830B0109C0F9004E0AAF1100ABAF1C1
:101BE000100F19DD01331032072B3E607D6007F1C5
:101BF00008072C932D92F0DD584621462BAA38AFCA
:101C000004F02EF8002840F07583AAF1100A2D9AEE
:101C1000BAF1100F2C9BE5DC144601330F9D072B06
:101C200054442C9387E82004D8BF08372D9409DD4D
:101C30000C982BAA109904F013F8002840F0B483F4
:101C40002D9C38AF0A9DEA0500F19A822C9B119DCC
:101C50000133C7F80080072B2C447D602D942C9312
:101C600000F3918308370A9D6A0747D513980E99A8
:101C7000451A002D42DD102D48F6E42A2C9BC0F6B3
:101C8000000A29DDCDF828A04FF01008DDF83090CB
:101C9000DDF840B0DDF858A002E0103D102D19DD50
:101CA00001331034072BC7F800A0C7F8048007F1F0
:101CB00008072C932D94F0DD484659462BAA38AFDF
:101CC00003F0CEFF002840F0D584103D2D9C102D50
:101CD0002C9BE5DCDDF828A001332C44072B2C934A
:101CE0002D94C7F800A07D6008DD0C982BAA1099F0
:101CF00003F0B6FF002840F057832D9C159D0E99E8
:101D000013988142ACBF6D182D181595002C40F02A
:101D10004383002338AF2C9395E5E308E90843EAB1
:101D2000457390460D4604F007021C4602F130034D
:101D300054EA050108F1FF3288F80030EDD10A9C21
:101D40004146E00700F1F784099DC8EB05051195B0
:101D500099E60A9D0B9315F0200300F0B381149CC3
:101D60000023E21D22F0070202F108051495D2E9D2
:101D7000004550E693F80090002A7FF498AD2022A9
:101D800095E593F80090581CB9F12A0F00F07D8773
:101D9000A9F13001092982BF002403460D943FF6C2
:101DA00087AD002303EB830310F8019B01EB430392
:101DB000A9F130010929F5D943EAE3730D930346EC
:101DC00076E50A9C44F080040A9493F800906EE54E
:101DD0000025A9F130012846139500EB800013F887
:101DE000019B01EB4000A9F130010929F5D91390BD
:101DF0005EE50A9D0B9345F010050A950A9C8DF847
:101E00008F20A10640F1FD80149DEB1D23F00703F8
:101E100003F108041494D3E9002314461D46002A54
:101E200073F10000C0F293849DF88FA00123F6E5C2
:101E3000F48A00080A9C0B9325078DF88F2040F147
:101E40001B85149DEB1D23F0070303F10804149474
:101E50001D681B955B681D931B981D9903F0F6FC8C
:101E600001281B9840F08084002200231D9906F071
:101E7000EBF9002840F034869DF88FA0032548F642
:101E8000083848F604330E950A9DC0F60008C0F6DF
:101E90000003002425F080050D940A9503240025F5
:101EA000B9F1470FD8BF984611941895F3E50A9CED
:101EB00044F008040A9493F80090F8E40A9C44F073
:101EC00020040A9493F80090F1E4149C14980B9366
:101ED000D4F80080051D00248DF88F40B8F1000F64
:101EE00000F0C6850D9800284046C0F29A8521462C
:101EF0000D9A02F01FFF002800F00F861495C8EB22
:101F000000000D9D0D94A842B8BF0546119525EA25
:101F1000E5740D9D0E949DF88FA01895BBE50A9D64
:101F200048F62834C0F600040B93A8068DF88F20DD
:101F30001A943CD5149CE31D23F0070303F1080514
:101F40001495D3E900450A98C30740F14B8254EA3F
:101F5000050100F04782302340F002008DF89030F8
:101F600002238DF891900A9055E593F800902B226A
:101F70009DE40A9D45F001050A9593F8009096E4CA
:101F8000149C149D2468291D002C1394FFF6F0ACBA
:101F9000149193F800908AE40A9D48F61434C0F630
:101FA00000040B93A8068DF88F201A94C2D40A9CC3
:101FB000E10600F1C8820A9C620640F1C4821498CE
:101FC0000025043030F8044C1490BCE7149A012525
:101FD000149C0DF1B8080B930023126804349A4640
:101FE0000E9514948DF88F300D93189311958DF8EC
:101FF000B82056E50A9C0B93A1068DF88F203FF57B
:1020000003AF0A9DEA0600F18D820A9C630640F147
:1020100089821498043030F9044C14902246E51754
:102020002B46FCE60A9D45F040050A9593F8009082
:102030003DE493F800901946B9F16C0F05BF0133E8
:102040000A9C0A9D44F020040BBF91F8019045F0D2
:1020500010050A940A952AE40A9D0B93A9068DF8A7
:102060008F2040F11684149C2168159C2246E517A8
:102070002B46149DC1E9002304351495FFF7E3BBFB
:102080000B9348F62830149B4FF078090A9DC0F650
:1020900000008DF8919045F002051C680A951D1D01
:1020A0001A903023149500258DF890300223B2E465
:1020B0000A9C0B9344F010040A940A9D15F0200327
:1020C0007FF44DAE0A9C14F0100240F034820A9C5A
:1020D00014F0400300F02F821498134600250430BA
:1020E00030F8044C149096E40A9C0B9344F01004CE
:1020F0000A940A9DAB063FF584AC0A9CE50600F104
:1021000008820A9C640640F1048214980025012389
:10211000043030F8044C14907DE40B938DF88F203C
:10212000B9F1000F1AD0002301259A460E958DF8BB
:10213000B8900DF1B8088DF88F300D931893119564
:10214000AFE40C982BAA109903F08AFD002840F008
:102150002B819DF88FA038AF2D9C03E52D9BDDF8DA
:10216000409023B10C9849462BAA03F079FDB9F8A9
:102170000C305B063FF521AC159849B0BDE8F08FF7
:10218000B9F1650F40F3B8801B98002200231D9918
:1021900006F050F8002800F028812C9B0122179DA2
:1021A000013413447A60072B2D943D60D8BF083763
:1021B0002C9300F37A83259B129DAB4203DB0A9D8F
:1021C000EB077FF550AD1C9D2C9B2C44199D0133D2
:1021D0002D94072B2C933D601C9D7D60D8BF083744
:1021E00000F3F183129D05F1FF38B8F1000F7FF77E
:1021F0003AADB8F1100F2C9B40F3AC81AA4D4FF0D3
:102200001009DDF840A00F950C9D05E0A8F110081D
:10221000B8F1100F40F3A08101331034072B87E889
:1022200040022C9307F108072D94EFDD2846514614
:102230002BAA38AF03F014FD002840F08F832D9CAB
:102240002C9BE3E7002B40F0B2800A9CE1075CBFC7
:1022500011930DF1E0087FF516AC219D30230DF1AF
:10226000DF088DF8DF3011950DE413980E99451AAB
:10227000002D7FF79CAC102D2C9BDCBF8A4A0F925F
:1022800022DD894822464FF0100BDDF830A0109C6B
:102290000F9002E0103D102D15DD01331032072B99
:1022A00087E840082C9307F108072D92F2DD50468D
:1022B00021462BAA38AF03F0D3FCD8B9103D2D9A94
:1022C000102D2C9BE9DC144601330F99072B2C446D
:1022D0002C9387E82200D8BF08372D947FF767AC8E
:1022E0000C982BAA109903F0BBFC00285CD12D9C04
:1022F00038AF5CE4A1463AE7129D2C9B012D40F3D8
:10230000BB810121621C0B44C7F80080072B796058
:102310002D92D8BF08372C9300F3CC81199D5C1CFB
:10232000DDF87090072C2C943D6091441C9DCDF8F5
:10233000B4907D60D8BF083700F3C8811B98002295
:1023400000231D9905F076FF002840F0AF8001348E
:10235000129D072C08F1010205F1FF332C949944DA
:102360003A60CDF8B4907B6000F397810837631C26
:102370001E9D1E9C072B27AA2C934C4487E8240003
:102380002D947FF76FAC0C982BAA109903F068FC82
:1023900050B92D9C38AF66E40C982BAA109903F025
:1023A0005FFC00283FF4B5ACDDF84090DFE6119209
:1023B0000DF1E008FFF767BB0C982BAA109903F00A
:1023C0004FFC0028F0D12D9C38AFFFF7DDBB0C98F7
:1023D0002BAA109903F044FC0028E5D12D9C38AFBE
:1023E000FFF7E2BB0223FFF716BB259B002B40F350
:1023F0006782129D1898DDF848B08542A8BF05464F
:10240000002DC3440CDD2C9B2C44C7F80080013305
:102410007D60072B2D942C93D8BF083700F30F83D2
:10242000189925EAE575C5EB0109B9F1000F40F3EC
:10243000B980B9F1100F2C9BDCBF1B4D0F9540F3F9
:102440009C80194D22464FF0100A109C0F950C9D50
:1024500005E0A9F11009B9F1100F40F38D800133A7
:102460001032072B87E840042C9307F108072D92C0
:10247000EFDD284621462BAA38AF03F0F1FB0028F8
:102480007FF438AF2D9A2C9BE3E7002D08BF0A2C70
:1024900080F03681219D30340DF1DF088DF8DF406A
:1024A0001195FFF7F0BA00BFF48A0008129D05F1FC
:1024B000FF38B8F1000F7FF75AAFB8F1100FDCBF4B
:1024C000A84B0F9340F31081A64D4B464FF0100AD6
:1024D000DDF840900F950C9D05E0A8F11008B8F1CB
:1024E000100F40F3008101341033072C87E84004BB
:1024F0002C9407F108072D93EFDD284649462BAAB7
:1025000038AF03F0ADFB00287FF431AE2D9B2C9C3F
:10251000E3E7149D0123043555F8044C1495002578
:10252000FFF779BA149D043555F8044C14952246EA
:10253000E5172B4673E4149D043555F8044C1495A7
:102540000025FFF768BA149D043555F8044C14951E
:102550000025F8E4834D0F9501330F9D072B44446C
:102560002C932D9487E820017FF77CAB0BE70C9D23
:10257000D5F80890FFF728B9144601330F9D072BB3
:102580004C442C9387E82002D8BF08372D9409DDEE
:102590000C982BAA109903F063FB00287FF404AF7A
:1025A0002D9C38AF189D259BA844129DAB4247DB5C
:1025B0000A9DE80744D41298C8EB0B05C31AAB4236
:1025C000B8BF1D46002D0CDD2C9A2C44C7F80080A6
:1025D00001327D60072A2D942C92D8BF083700F372
:1025E000398225EAE575C5EB0308B8F1000F7FF7DE
:1025F0003AABB8F1100F2C9BACDD5A4D4FF01009DF
:10260000DDF840A00F950C9D04E0A8F11008B8F18A
:10261000100FA1DD01331034072B87E840022C9303
:1026200007F108072D94F0DD284651462BAA38AF54
:1026300003F016FB002840F091812D9C2C9BE4E7D1
:102640001C9D2C9A2C44199D01322D94072A2C9202
:102650003D601C9D7D60D8BF0837ACDD0C982BAA6F
:10266000109903F0FDFA00287FF49EAE259B38AF49
:102670002D9CA0E7D9467AE50A9DE9073FF541AED2
:10268000012204F101099C18C7F80080072CCDF83D
:10269000B4902C947A607FF769AE0C982BAA1099AD
:1026A00003F0DEFA00287FF47FAEDDF8B49038AF97
:1026B0002C9C5CE60C982BAA109903F0D1FA002808
:1026C0007FF472AE2D9A38AF2C9B27E60C982BAA7C
:1026D000109903F0C5FA00287FF466AEDDF8B490D7
:1026E00038AF2C9C2AE6994601340F9B072CC14435
:1026F0002C94CDF8B49087E808017FF737AECCE78B
:102700000DF1DF0B204629460A22002305F0ECFDDF
:10271000D8462046294600230BF1FF3B303288F88B
:1027200000200A2205F0E0FD04460D4654EA0500AB
:10273000E8D1FFF7A4B9302B3FF4A1A9099C3023BD
:10274000904601F8013CA41A1194FFF79CB94FF090
:102750002D0A644265EB45058DF88FA00123FFF734
:102760005EB900BFF48A00081D9903F06FF80028D5
:1027700000F004810D9C29F02005013404BF0624DB
:102780000D9406D0472D04D10D9C002C08BF0124C8
:102790000D941D9B0A9C002B44F480740F94BDBFC4
:1027A0001C464FF02D0B04F1004ADDF874A0A8BFC1
:1027B0004FF0000BB5F1460461426141002940F041
:1027C0006B81452D40F0FC810D9802211B9A5346E8
:1027D000441C0091019425A90C98029126A903910B
:1027E00029A9049100F0DEFB8046044400231B98D5
:1027F0000022514605F01EFD234648B9299B9C4204
:1028000006D930215A1C29921970299B9C42F9D86B
:10281000472DC8EB0303129300F07781B9F1650FE0
:1028200040F34D82B9F1660F00F0CC81259D1895DB
:10283000189C129DAC42C0F2B5810A9CE00753BFC0
:102840004FF067094FF06709189B189D49BF013386
:1028500025EAE573119323EAE37358BF1195BBF1A1
:10286000000F40F043810F9C0E93CDF834B00A94D2
:102870009DF88FA0FFF70FB9149CE31D23F0070309
:1028800003F1080514951C681B945B681D93FFF702
:10289000E3BA0A9CE20663D5149D159C043555F8ED
:1028A000043C14951C60FEF7CEBF0C982BAA10991F
:1028B00003F0D6F900287FF477AD2D9C38AF7AE489
:1028C0002C9A0121179D01340A442D94072A2C9239
:1028D0003D6079606BDC0837194629B9129D1DB936
:1028E0000A9DED077FF5BFA92C9B1C9A01331C9D07
:1028F0002244199C072B2D927D603C60D8BF08377D
:102900002C9300F33F81C1F10009B9F1000F7BDD89
:10291000B9F1100FDCBFA24C0F945FDDA04D102465
:10292000DDF840A00F950C9D04E0A9F11009B9F164
:10293000100F53DD01331032072B3E607C6007F12E
:1029400008072C932D92F0DD284651462BAA38AF6C
:1029500003F086F910B92D9A2C9BE6E7D14606E4E0
:10296000149C0A9D043454F8043C15F0400F159D46
:10297000149414BF1D801D60FEF765BF0A9D48F6C4
:10298000103848F60C33C0F60008C0F600030324E4
:1029900025F080050D900E94B9F1470FD8BF9846E9
:1029A0000A95189011949DF88FA0FFF774B80C98B1
:1029B0002BAA109903F054F900287FF4F5AC25995F
:1029C00038AF2D9C89E70C982BAA109903F048F991
:1029D00000287FF4E9AC2D9C38AF03E401330F9C51
:1029E000072B4A442C9387E81002D8BF08372D9252
:1029F0000ADD0C982BAA109903F032F900287FF415
:102A0000D3AC2D9A38AF2C9B0133129D129C072B0F
:102A10002C931444C7F800802D947D607FF722A981
:102A2000B1E40D9403F0B0F814950D9D9DF88FA0BE
:102A3000189520EAE07411900E94FFF72CB80C98CA
:102A40002BAA109903F00CF900287FF4ADAC2D9C53
:102A500038AFE5E40C982BAA109903F001F900288F
:102A60007FF4A2AC259B38AF12992D9CCB1AB8E508
:102A70000D9CC24648F63C38CDF834A0062C28BF41
:102A8000062414951194C0F6000824EAE474CDF8E5
:102A900060A00E94FEF7FFBF03200D9C53460090EC
:102AA00025A81B9A029026A80194039029A80490B7
:102AB0000C98079100F076FA472D0799804602D1CD
:102AC0000A9CE0071DD50D9C444400293FF48EAEBE
:102AD00098F80030302B00F0B280259B1C4485E62E
:102AE0004FF02D0A8DF88FA0FFF7C8B90F9D4FF05A
:102AF0002D0A00240E938DF88FA00A950D94FEF7F1
:102B0000CDBF299BC8EB03031293259BDA1C11DB75
:102B10000D9C9C420EDB18938AE60D9C149524EACA
:102B2000E4740E940D9C18900D9011949DF88FA054
:102B3000FEF7B1BFA9F10209013B2593002B8DF8E7
:102B40009C90BABF5B422D222B22092B8DF89D2031
:102B500047DC30338DF89F3030238DF89E3028AB22
:102B6000129D27AA129C9A1A012D1E9214441194A8
:102B700040F39B80119B002418940133119323EAA6
:102B8000E3736CE60C982BAA109903F069F80028FF
:102B90007FF40AAC259938AF2D9A2C9BB3E600BF81
:102BA000F48A0008189C4FF06709129D002CD4BFCE
:102BB000C4F1020301231D44119525EAE5734EE695
:102BC00002206AE7259C002C18944FDD0D9D002DF6
:102BD00044D10A9CE50741D4189D25EAE573119577
:102BE0003DE646F267610DF1AA05C6F2666181FB1A
:102BF0000320DA172C46013DC2EBA00202EB820053
:102C0000A3EB40001346092B00F130022270EEDCEA
:102C10000DF1AB003033A842DAB204F8012C50D9E0
:102C20000DF19D01234601E013F8012B834201F8C9
:102C3000012FF9D148ADC4EB4503F63B90E71B9853
:102C400000220023514605F0F5FA00287FF445AF35
:102C50000D98C0F1010325931C44C7E50D9C189DF8
:102C6000631C1D44119525EAE573F8E50D9C34B904
:102C70000A9DEC075CBF012311937FF5F0AD0D9B1E
:102C80000233119323EAE373E9E5149D149C93F84E
:102C9000019003462D68211D1491002D0D95BCBF98
:102CA0004FF0FF350D95FEF702BE0A9C14F00103AC
:102CB0007FF460AF119D189325EAE573CFE5259B5E
:102CC0003AE70DF19E034BE730B440F22C04C2F218
:102CD00000040D46134601462A46206830BCFEF724
:102CE00047BD00BF2DE9F04F8846ADF26C4D4FF463
:102CF0008065D8F864706946B8F80EA01AACB8F8C8
:102D00000CB0002619978146D8F820702BF0020BE2
:102D1000009404940897D8F82870ADF80CB0ADF87A
:102D20000EA00A97069602950595FEF721FD041E52
:102D300007DB4846694601F0A3F9B04218BF4FF0DF
:102D4000FF34BDF80C3020465E0642BFB8F80C30A8
:102D500043F04003A8F80C300DF26C4DBDE8F08F45
:102D600040F22C03C2F2000370B506461D680C4603
:102D700015B1AB69002B4DD048F69833C0F600036F
:102D80009C4208BF6C680ED048F67833C0F600034A
:102D90009C4208BFAC6806D048F65833C0F6000322
:102DA0009C4208BFEC68A28993B218070CD5216930
:102DB000A9B113F001021ED063690022A2605B4238
:102DC000A361F1B1002070BDD9063CD55D0725D4C3
:102DD000216942F00803A3819BB20029E9D103F4E1
:102DE0002072B2F5007FE4D02146304601F066FC47
:102DF000A3892169DDE7980758BF6269A2600029AD
:102E0000E0D1A3891A06DDD543F040034FF0FF302F
:102E1000A38170BD284601F0A5F9ADE7616B49B10A
:102E200004F14403994203D0304601F0E3FAA28949
:102E30000023636322F024022169002363601204EB
:102E40002160120CC5E742F0400209234FF0FF3029
:102E50003360A28170BD00BF2DE9F04F8C4603693D
:102E600083460D6985B09D42C8BF002000F396805F
:102E7000013D01F114040BF1140A54F82510AA00C5
:102E80005AF82500914601310292CDF804C052440F
:102E9000039204F071FCA144DDF804C080460028D0
:102EA00041D000212246084653460F4652F8041BE3
:102EB0001E6891451FFA81FE4FEA11410EFB08770B
:102EC0001FFA86FE01FB08F101EB1741BFB2C7EB09
:102ED0000000864488B2C0EB16404FEA114700EB71
:102EE0002E401FFA8EFE4EEA00414FEA204043F882
:102EF000041BDBD2029A5AF80230A3B9039A131FBB
:102F00009A450ED252F8043C5BB9A2F1080301E0E5
:102F1000126832B99A451A4605F1FF35A3F1040348
:102F2000F6D3CBF810506146584602F083FA0028D9
:102F300033DB08F101085346002254F8046B18688B
:102F4000A145B1B24FEA1646C1EB020287B202EBCD
:102F50000701C6EB104202EB214289B241EA02416D
:102F60004FEA224243F8041BE7D25AF825200AEB25
:102F7000850392B91A1F92450DD253F8042C52B909
:102F8000083B01E0126832B99A451A4605F1FF354F
:102F9000A3F10403F6D3CBF81050404605B0BDE8CA
:102FA000F08F00BF2DE9F04F9BB0466A0446924671
:102FB0009B46279D002E00F0BB82336853B1726898
:102FC0000126194696409E605A6001F0D9FF636A57
:102FD00000221A60BBF1000FB4BF012300232B6055
:102FE0004FF00003B4BF2BF00049D9461A46C7F68C
:102FF000F073C7F6F07209EA0303B8BFCB469342F9
:1030000014D0002200235046594605F013F980469B
:1030100028B3269E01233360289E002E00F0DC801A
:10302000AF4B581E33601BB0BDE8F08F269E48F6AC
:10303000543042F20F73C0F600003360BAF1000F53
:1030400000F0AA80289E002EEDD0C378002B40F01F
:10305000B280C31C289E33601BB0BDE8F08F19AA54
:1030600018AB00922046019352465B4602F0F2FAFA
:103070005FEA19550B9040F0A180189F6FF48263AE
:10308000199D3D449D42C0F278824FF60E4305F2F1
:103090001242CFF6FF732AFA02F25B1B09FA03F021
:1030A000104304F0E9FD013DB84601261596A1F153
:1030B000F87100230022C3F6F87304F09FFC82A38A
:1030C000D3E9002304F04EFE81A3D3E9002304F0EA
:1030D00097FC064628460F4604F0DEFD7EA3D3E9A2
:1030E000002304F03FFE02460B463046394604F00A
:1030F00087FC06460F4605F0CFF83946002200232C
:103100000490304605F0A0F8002840F02682049E86
:10311000162E84BF01260F9612D848F6E03152468B
:10312000C0F600015B4601EBC601D1E9000105F0E4
:10313000A9F8002800F01F82013E049600260F9691
:10314000C5EB0805013D069549BF6E4200260A966B
:10315000002654BF0A960696049E002EC0F2F18106
:10316000DDF818E00E96B6440026CDF818E00C966F
:10317000249E092E35D8052EC4BF043E2496249ED5
:10318000CCBF00250125B31E032B2CD8DFE813F09C
:103190006103290270038D0548F6483248F654331E
:1031A000C9F31300C0F60002C0F6000300280CBFEC
:1031B0001046184646E700F108034BE7CBF313032C
:1031C000CDF8548043F07F535046A5F2FF35DDF82B
:1031D000608043F440116CE748F64430C0F60000CC
:1031E00021E700262496656A0023194620464FF001
:1031F000FF3625936B600996149601F08BFE636A87
:1032000001260D9628601B680893199B002BC0F2BD
:10321000C780049E0E2E00F3C380DDF894E048F6CC
:10322000E033099EC0F600034FEADE72002ECCBFE9
:10323000002202F00102049E03EBC603D3E9000161
:10324000CDE90601002A40F06E8402460B46504646
:10325000594604F0B1FE089E05F01EF8751C804624
:1032600004F01AFDDDE9062304F07CFD02460B465E
:103270005046594604F0C2FB099ADDF820E008F1F7
:103280003003012A8EF8003006460F465BD000233B
:103290000022C4F2240304F065FD00220023064648
:1032A0000F4604F0C7FF002840F01985DDF820A084
:1032B000099808998244CDF80CA001F10209DDE9D2
:1032C00006AB1AE0AFF3008061436F63A787D23F7C
:1032D000B3C8608B288AC63FFB799F501344D33F05
:1032E000458B000804F03EFD0022002306460F46F1
:1032F00004F0A0FF002840F0F28452465B463046BE
:10330000394604F059FE4D4604F0C6FF804604F0ED
:10331000C3FC52465B4604F025FD02460B46304690
:10332000394604F06BFB08F1300E09F801EC00237C
:10333000DDF80CE00022C4F22403F14509F1010993
:1033400006460F46CED132463B463046394604F05B
:1033500057FB06460F463246DDE906013B4604F0C0
:1033600073FF002800F07085DDF82090049E2A4647
:1033700015F8018C0895169605E04B4500F0B884C9
:1033800013F8018C1A46B8F1390F02F1FF33F4D06B
:10339000169E089208F101020496D2B21A70B1E0AA
:1033A0000D9E002E40F0F1800C9E0A9DDDF83480C9
:1033B00006980028C8BF002D09DD03460A99AB42D4
:1033C000A8BF2B46ED1AC91AC01A0A9106900C9A8A
:1033D000002A1CDD0D9B002B00F07984002E10DDEF
:1033E00041463246204601F06DFF0B9A804620464A
:1033F000414601F0C7FE0B990746204601F0C0FD8B
:103400000B97DDF830E0BEEB060240F0A7842046C3
:10341000012101F0ADFE06460E98002805DD31467B
:1034200020460E9A01F04EFF06462499012940F3EA
:10343000908300270E98002840F06C830120069BA3
:10344000034413F01F0300F09382C3F12002042A07
:1034500040F36885C3F11C030A99069A1D44194478
:103460000A911A4406920A99002905DD0B99204613
:103470000A9A01F083FF0B90069A002A04DD314678
:10348000204601F07BFF06460F9B002B40F0218376
:10349000249809990228D4BF002301230029C8BF1A
:1034A0000023002B00F01A820998002840F00F82B8
:1034B000314603460522204601F07EFD06460B9864
:1034C000314601F0B7FF002840F30182DDF820907B
:1034D0000025049A3123013289F80030049209F161
:1034E000010308933146204601F04AFDB8F1000F70
:1034F00008D0454518BF002D40F04A82414620467D
:1035000001F03EFD20460B9901F03AFD049E002299
:103510004846731C089E3270269E3360289E002EFB
:103520003FF481AD0898306048461BB0BDE8F08F8D
:10353000102001F037F96062466086600660C66060
:1035400048E50A9EDDF810E0CEEB06060A96CEF1BD
:1035500000060C9600260E960AE6049804F09CFBE2
:1035600032463B4604F066FE00287FF4D0AD049E50
:10357000013E0496CBE50F90E2E54FF6EE30CFF634
:10358000FF70401B0AFA00F08BE5249E012E40F3E9
:10359000158409980C99461E0998B142AFBFC6EB35
:1035A00001060C9A0C96C2EB0603BFBF0E9EF618DE
:1035B0000E9600260028B9BF00230A990A9D099B90
:1035C000B8BFC0EB01050A9A2046DDF818E00121DA
:1035D0001A440A929E44CDF818E001F0C9FD8046D5
:1035E000E6E600260D96049EDDF894E0B644CDF89C
:1035F00050E00EF101060996002E40F35983099E12
:103600000E2E8CBF002505F001053746666A172F80
:103610004FF00001716009D9012204235B001146BB
:1036200003F114000132B842F8D97160204601F06C
:1036300071FC636A30601B680893002D3FF4E5ADB0
:10364000049ECDE912AB002E40F3AB8106F00F02D1
:1036500048F6E0333511C0F6000303EBC203E90678
:10366000D3E9006740F18F8148F6D0435046C0F659
:103670000003594605F00F054FF00308D3E908236E
:1036800004F09AFC82468B469DB148F6D049C0F6BC
:103690000009EA073046394607D5D9E9002308F181
:1036A000010804F05FFB06460F466D1009F108099A
:1036B000EFD132463B465046594604F07DFC064663
:1036C0000F460F9850B10023304639460022C3F60A
:1036D000F07304F0B9FD002840F01583404604F073
:1036E000DBFA32463B4604F03DFB00230022C4F2E5
:1036F0001C0304F085F980460998A1F1507900284F
:1037000000F0C9800499DDF824C016910D9A002AB2
:1037100000F0798148F6E033089AC0F600030021F2
:1037200003EBCC030020C3F6E071551C53E90223E0
:10373000CDF808C004F040FC42464B4604F05EF968
:1037400082468B463046394604F0A6FD804604F09A
:10375000A3FA08F130085FFA88F802460B463046B3
:10376000394604F04BF9DDF820E08EF8008006467B
:103770000F465046594632463B4604F083FD00282A
:1037800040F0C283002132463B460020C3F6F07170
:1037900004F034F902460B465046594604F072FDD7
:1037A000DDF808C0002840F01483BCF1010F40F39D
:1037B000F580DDF820901794E144CDF84090A946BB
:1037C00010E000210020C3F6F07104F017F9524612
:1037D0005B4604F039FD002840F0F98210988145DD
:1037E00000F0DB800023504659460022C4F2240337
:1037F00004F0B8FA00230022C4F2240382468B4668
:103800003046394604F0AEFA0D46044604F044FD55
:10381000804604F041FA08F130085FFA88F8024661
:103820000B462046294604F0E9F852465B4609F863
:10383000018B06460F4604F007FD32463B46002842
:10384000BFD0169E4D46179CDDF820900496089533
:1038500058E600260D962598002840F333820E285E
:103860008CBF002505F00105074614900990CDE6B0
:1038700001260D96EFE7404604F00EFA32463B462D
:1038800004F070FA00230022C4F21C0304F0B8F81C
:103890008046A1F15079002330460022C4F214037F
:1038A000394604F0ABF842464B4682468B4604F05C
:1038B000E9FC0646002840F0A3804246504659469F
:1038C00009F1004304F0C0FC002867D0B0462599F8
:1038D0000025DDF82090C943049103E60D980028E7
:1038E00040F064810025DDF824A0DDF820B0DDF88B
:1038F0002C9002E001F060FB814631464846FFF71C
:10390000ABFA49460A22002300F130070BF8057094
:10391000013520465545EDDBDDF820B01D46099800
:10392000CDF82C900128ACBF83440BF1010B0B990F
:103930000122204601F022FD31460B9001F07AFD74
:10394000002840F36F821BF8012C089905E08B4298
:1039500000F0288213F8012C9B46392A0BF1FF3323
:10396000F5D00132DDF820901A70CDF820B0B9E51D
:103970001C23DDF828E01D4406989E44CDF828E07D
:10398000184406906FE5DDE912AB4FF002087BE6C4
:103990002946204601F0F4FAB0E5179CDDE912ABA8
:1039A00033E4049E7542002D00F09D8105F00F0266
:1039B00048F6E033C0F60003DDE9120103EBC20371
:1039C000D3E9002304F0CEF92D1106460F4600F08E
:1039D000978248F6D0494FF00208C0F60009EB077D
:1039E0003046394607D5D9E9002308F1010804F02B
:1039F000B9F906460F466D1009F10809EFD160E6E6
:103A00000026B04662E50CF1FF3B48F6E031C0F617
:103A10000001089801EBCB0142464B4600F1010A38
:103A2000D1E90001CDF808C004F09CF9CDE91001FE
:103A30003946304604F030FC054604F02DF93035A7
:103A400002460B463046394603F0D8FF0F46089928
:103A500006460D70DDF808C0BCF1010F22D0089AAF
:103A60003046394602F1FF391546E1440023002271
:103A7000C4F2240304F076F90F46064604F00CFC69
:103A8000804604F009F908F1300802460B4630463A
:103A9000394603F0B3FF05F8018F4D45E6D10646E0
:103AA0000F46DA4400230022C3F6E073DDE910017B
:103AB00003F0A6FF32463B4604F0C6FB002800F0A8
:103AC0005481DDF8209052461AF8018CCDF820A0E0
:103AD00059E40B98314601F0ADFC0028BFF6D8AC94
:103AE000DDF810E020460B990A2200230EF1FF3E7C
:103AF000CDF810E001F060FA0B900D98002841D14C
:103B00001499149B002903DC249A022A00F30782EB
:103B10000993E7E6336906EB8303186901F0DEFADF
:103B2000C0F120008BE4099E002E40F08B81002321
:103B30000022C4F21403DDE9060104F013F9524631
:103B40005B4604F095FB099EB04600287FF4BFAEAB
:103B5000BCE4BAF1000F7FF46CACCBF3130357460F
:103B6000002B7FF467AC2BF000473F0D3F05002F83
:103B70003FF460AC0A9A0127069B01320A92013396
:103B8000069357E4002341460A22204601F014FA26
:103B9000149A2499002ACCBF002301230229D8BFFC
:103BA00000238046002B40F0B6810992002D05DDF0
:103BB00041462A46204601F0E1FB8046C446002FDC
:103BC00040F0538109990AF00103089A3746089892
:103BD000E1460A4409930A92451C0B9E0AE001F053
:103BE000EBF949460A2200238046204601F0E4F919
:103BF0008146013539463046FFF72EF94146824667
:103C0000304601F017FC4A4639468346204601F00B
:103C100033FC0AF13002059205F1FF3ECDF818E0C1
:103C2000C2680346002A3ED119463046029301F08D
:103C300001FC029B024620461946029201F0A0F9BF
:103C4000029A2498104303D10999002900F04A816F
:103C5000BBF1000FC0F2C38024995BEA010103D1DC
:103C6000099B002B00F0BB80002A00F31B810A9BFC
:103C7000AB46059A9D4205F8012C00F0248131469F
:103C80000A220023204601F097F9C84541464FF02B
:103C90000A024FF0000306462046A0D101F08CF93D
:103CA00080468146A5E70122C5E701260D969AE4E4
:103CB0000E2E8CBF00220122666A00231540194691
:103CC0007360B3E40122259214920992F4E70B99F0
:103CD00020460C9A01F0F6FA0B90FFF798BBDDF83E
:103CE000209008950EE4DDE912674FF00208E8E441
:103CF000169E302108923122013689F80010049670
:103D00001A70FFF7FFBB099900293FF4B4AD149A6C
:103D1000002A7FF743AE0023002230463946C4F222
:103D2000240304F01FF8049B013B1693064608F198
:103D300001000F4603F0B0FF02460B4630463946FD
:103D400004F010F800230022C4F21C0303F058FE14
:103D5000DDF850C08046A1F15079D7E40B99204698
:103D600001F0B0FA0B90FFF752BB0021DDE9102300
:103D70000020C3F6E07103F041FE32463B4604F0FA
:103D800081FA00283FF40AAE53460AF1FF3A13F8CD
:103D9000012C302AF8D0169EDDF820900893049666
:103DA000FFF7B0BBDDF8209031230499CDF820B0A7
:103DB000013189F800300491FFF794BB159E002E65
:103DC00069D003F233430C9E0A9DFFF7FCBB179C9E
:103DD0004D46DDF820902A460895FFF7D4BA002A10
:103DE0000B96CC463E46059F12DD0B9901222046DC
:103DF000CDF8089001F0C2FA31460B9001F01AFBA1
:103E0000DDF808C0002877DD392F62D00AF13107CC
:103E1000069B4546DDF82090E046581C1F70089030
:103E2000FFF760BB02D1FB073FF58DAD5B460BF1A1
:103E3000FF3B13F8012C302AF8D0DDF820900893CE
:103E4000FFF750BB002641E5DDE9060132463B465F
:103E500004F0F0F900283FF442AF18F0010FDDF84C
:103E600020903FF43EAFFFF781BAD8F80410204607
:103E700001F050F8D8F8103008F10C019A1C9200AB
:103E800005460C3000F09EFF20462946012201F035
:103E900075FA844696E6189B0C9E0A9DC3F136037C
:103EA000FFF791BB0B963E46059FCC46392F10D0AD
:103EB000069B0137DDF820904546581CE0461F70F0
:103EC0000890FFF70FBB0B9645463E46C846059F38
:103ED0002DE5069B392245460899E04603F1010B82
:103EE0001A703AE50B963E46059FCC46392FF0D026
:103EF000BBF1000F8ADC8BE78AD1FA0788D583E70C
:103F00004FF00208FFF7DDBB169EDDF82090089504
:103F10000496FFF7F7BA149A0992FFF7C5BA099306
:103F2000FFF7C2BA3FF49FAAC3F13C0321E500BFEB
:103F30008B892DE9F0411A070D4680463CD44A682A
:103F400043F400638B81002A5BDDEC6A002C4DD0CA
:103F50009BB2D8F8007003F480560022C8F8002005
:103F6000B6B2002E51D06A6D5E0705D569686B6BDD
:103F7000521A0BB12B6CD21A4046296A0023A04773
:103F8000441C4DD0AB8900212A6923F40063696089
:103F90009BB22A60DA04AB814FD4696BC8F8007019
:103FA00021B305F14403994202D0404600F022FAC1
:103FB00000206863BDE8F0810E69BEB10C680E6038
:103FC000990718BF0023C6EB040408BF6B69AB60F8
:103FD0000AE032462346AF6A4046296AB8470028BD
:103FE000C0EB0404064404DD002CF2DC0020BDE834
:103FF000F081AB894FF0FF3043F04003AB81BDE867
:10400000F0810A6C002AA0DCF0E73246012340462A
:10401000296AA047431C02461ED0AB89EC6AA3E77D
:10402000D8F800305BB9A9892A6921F400616B6076
:104030008BB2AB81DB042A60AFD56865ADE71D2B81
:1040400001D0162B15D12B690021AA89696022F4B1
:1040500000622B60AA81A0E7D8F80030002BDCD0EA
:104060001D2B18BF162BC4D1C8F800703046BDE810
:10407000F081AB8943F04003AB81BDE8F08100BF24
:104080000B6910B5044682B0E3B108B1836913B37C
:1040900048F69833C0F60003994208BF61680ED015
:1040A00048F67833C0F60003994208BFA16806D0ED
:1040B00048F65833C0F60003994208BFE168B1F9E9
:1040C0000C3013B9002002B010BD204602B0BDE88C
:1040D0001040FFF72DBF019100F044F80199D7E798
:1040E00038B140F22C030146C2F200031868FFF712
:1040F000C7BF48F6B83344F28101C0F60003C0F6EA
:104100000001186800F066BA002070470020704770
:1041100046F60941C0F6000100F038BA70B54B1EF2
:1041200068250E4605FB03F505F1740100F04AFB16
:10413000044640B100210C30666005F16802216040
:10414000A06000F093FE204670BD00BF48F6B83373
:1041500046F60941C0F60003C0F60001186800F0F9
:1041600015BA00BF2DE9F84F05468369002B40F0D2
:10417000898048F6B83144F21112C0F60001C0F847
:10418000D830C0F8DC30C0F6000209680024C0F85E
:10419000E03004278842826204BF0123836100F07B
:1041A00073F845F6C50B45F6ED0A45F6251945F6B3
:1041B0004518C0F6000BC0F6000AC0F60009C0F6AC
:1041C00000086860284600F05FF8A860284600F004
:1041D0005BF86E6821460822E86006F15C00B78152
:1041E00034607460B4607466F48134617461B46185
:1041F00000F03CFEAF684FF001033662C6F824B011
:104200004FF0090EC6F828A02146C6F82C900822C7
:10421000C6F8308007F15C00FB81A7F80CE03C6039
:104220007C60BC607C663C617C61BC6100F01EFE11
:10423000EE684FF0120CC7F824B0C7F828A04FF072
:10424000020EC7F82C902146C7F8308006F15C00BA
:104250003F62082234607460B460746634617461D3
:10426000B461A6F80CC0A6F80EE000F0FFFDC6F899
:1042700024B0C6F828A00123C6F82C90C6F83080D8
:104280003662AB61BDE8F88F48F6B833C0F600037C
:1042900070B506461D68AB69002B2AD0D8356B680F
:1042A000AC68013B04D520E0013B68345A1C1CD0AB
:1042B000B4F90C20002AF7D1002501234FF6FF7630
:1042C000656629462560A56004F15C0065600822EA
:1042D00025616561A561E681A38100F0C7FD2046E7
:1042E0006563A563A564E56470BD2B682BB11D46AD
:1042F000D5E72846FFF736FFD0E730460421FFF721
:104300000DFF286008B10546C9E70C22326070BD78
:10431000704700BF704700BF704700BF704700BFC5
:1043200040F22C0344F20911C2F20003C0F600016E
:10433000186800F02BB900BF40F22C0344F20D11B5
:10434000C2F20003C0F60001186800F01FB900BFF8
:10435000F8B540F29C14C2F200040F46054600F086
:10436000D5FDA3685E6826F00306F71B07F6EF7716
:104370003F0B013F3F03B7F5805F07DB2846002175
:1043800001F08CFAA3683344984204D0284600F028
:10439000BFFD0020F8BD2846794201F07FFA0130C8
:1043A00010D040F2DC53A168C2F20003F61B28468D
:1043B00046F001061A684E60D71B1F6000F0A8FD8A
:1043C0000120F8BD2846002101F068FAA368C21A4E
:1043D0000F2ADBDD40F2A45440F2DC51C2F20004AB
:1043E000C2F2000142F001025A602368C01A08605C
:1043F000CCE700BF2DE9F0410E46804600295ED093
:1044000000F084FD40F29C1556F8041CC2F2000531
:10441000A6F1080421F00103AF68E2189742506842
:1044200020F0030061D011F00101506018BF00219D
:104430000FD156F8086C05F1080CA41B3344A6688C
:1044400066450FBF0121D4F80CC0C6F80CC0CCF8EB
:10445000086016187668F60708D40344906811B906
:10446000494EB04260D0D268C260906043F0010211
:104470006260E350F1B9B3F5007F22D35A0A042AEF
:104480005BD898093830410005EB810540F29C115A
:10449000C2F20001AA68AA425BD0516821F0030170
:1044A0008B4202D292689542F7D1D368E360A26052
:1044B0009C60D4604046BDE8F04100F029BDBDE8F5
:1044C000F081DB080121686805EBC3029B1001FA4B
:1044D00003F391681843E26068604046A16094600D
:1044E000CC60BDE8F04100F013BDCF07184407D4FD
:1044F00056F8083CE41A1844A268E368D3609A604E
:1045000040F2A85240F00103C2F200026360AC60C6
:1045100013689842CED340F2D8534046C2F200030B
:104520001968FFF715FFC5E76C6143F001022C61C4
:10453000E060A0606260E350BCE7142A9CBF02F117
:104540005B004100A0D9542A0CD8180B6E304100F2
:104550009AE701264D688010134606FA00F00543DD
:104560004D60A3E7B2F5AA7F03D8D80B773041009E
:104570008AE740F254518A4295BF980CFC217C3066
:104580007E2098BF41007FE7A40100202DE9F04183
:1045900010F1D806884619D000277568B468013D27
:1045A0000ED4A389013D012B06D9B4F90E30204663
:1045B000013301D0C04707436B1C04F16804F0D1FC
:1045C0003668002EE9D13846BDE8F08137463846D6
:1045D000BDE8F0812DE9F84310F1D8068046894600
:1045E0001AD000277568B468013D0FD4A389013D36
:1045F000012B07D9B4F90E3021464046013301D0D2
:10460000C84707436A1C04F16804EFD13668002EDE
:10461000E8D13846BDE8F88337463846BDE8F88328
:1046200010B514463AB148F6C0311046C0F6000144
:1046300001F08CF920B948F6BC30C0F6000010BD7E
:1046400048F6BC312046C0F6000101F07FF9002891
:10465000F1D048F624312046C0F6000101F076F989
:1046600048F6BC33C0F6000300280CBF18460020F3
:1046700010BD00BF40F22010C2F20000704700BF22
:1046800040F22013C2F20003186A704700487047D6
:10469000440100200020704700487047640100205A
:1046A00040F22C030A46C2F2000301461868FFF7E5
:1046B000B7BF00BF00487047640100208B89F0B588
:1046C0000C469AB291B0960705463BD4B1F90E104C
:1046D000002917DB01AA02F031FB002810DB029B46
:1046E00003F47043B3F500514F424F41B3F5004F0F
:1046F00030D0A3894FF4806643F40063A3810CE0BB
:10470000A3899AB212F0800F4FF0000714BF402621
:104710004FF4806643F40063A3812846314600F0DD
:1047200051F8002831D0A28944F21113C0F60003D9
:10473000AB6242F08003206020616661A381C7B94B
:1047400011B0F0BD01F1470301220B600B614A611A
:1047500011B0F0BD45F62513E26AC0F600039A4297
:10476000C7D1A2894FF480631E4623651343A381FA
:10477000D3E72846B4F90E1002F06EFC0028DFD013
:10478000A38943F00103A381DAE7A3899A05D7D46B
:1047900043F0020304F14702A38101232260226156
:1047A0006361CDE740F22C030146C2F200031868B2
:1047B00000F008B840F22C030146C2F2000318686A
:1047C000FFF718BE2DE9F04F01F10B04162C83B052
:1047D0008EBF24F0070400231024074688BFE30F90
:1047E0008C422CBF194643F00101002940F0BA80E9
:1047F00000F08CFBB4F5FC7F20D240F29C164FEA0F
:10480000D40CC2F2000606EBCC02D368934200F04F
:10481000F781596803F10808DA68384621F0030483
:10482000996823445C68CA6044F0010491605C604C
:1048300000F06EFB404603B0BDE8F08F5FEA542CF9
:1048400004BF7E254FF03F0C40F0948040F29C1650
:10485000C2F2000606EB8505EB689D4206D10DE02D
:10486000002A80F26481DB689D4207D0596821F0FC
:1048700003010A1B0F2AF3DD0CF1FF3C0CF1010CC4
:1048800040F29C123369C2F2000202F1080E734535
:1048900008BF516823D0586820F00300011B0F297E
:1048A00000F392810029C2F814E0C2F810E06CDA3B
:1048B000B0F5007F80F06181C0084FF001085168B9
:1048C00002EBC005801008FA00F848EA0108A86861
:1048D0004146DD60C2F804809860AB60C36001228D
:1048E0004FEAAC0302FA03F38B425CD819420BD1B6
:1048F00093402CF0030C19420CF1040C04D15B0022
:104900000CF1040C1942FAD006EBCC08E146404603
:10491000C268904207D16BE1002980F27B81D268A6
:10492000904200F06581556825F00305291B0F2989
:10493000F2DD9046D5683846131958F8087F44F0E0
:10494000010C41F00104C2F804C0FD60AF60736166
:104950003361C3F80CE0C3F808E05C60595000F024
:10496000D7FA67E74FF000080C230360404603B016
:10497000BDE8F08FBCF1040F00F2EB804FEA941C0D
:104980000CF1380C4FEA4C0560E71A1803F10808DF
:104990003846536843F00103536000F0B9FA4046CB
:1049A00003B0BDE8F08FB5686B6823F0030A544587
:1049B00004D8C4EB0A030F2B00F3A88040F2D859A7
:1049C000D6F80814C2F200093846013105EB0A0294
:1049D000D9F800300192234417BF03F5805303F147
:1049E000100B0F3323F47F6318BF23F00F0B5946CE
:1049F00000F054FF019AB0F1FF3F804600F02081A3
:104A0000824200F21A81D9F8043042455B44C9F869
:104A1000043000F06581D6F8081440F29C10C2F210
:104A20000000013117BFC2EB0802C0F808849B18D0
:104A3000C9F8043018F0070338461FBFC3F1080255
:104A4000C3F58053904403F1080208EB0B0308BF41
:104A50004FF48052C3F30B03C3EB020B594600F033
:104A60001DFF40F2D852C6F80880C2F20002431C73
:104A7000D9F8043015BFC8EB0001012159444FF0AB
:104A8000000B18BF41F00101B5425B44C8F80410A7
:104A9000C9F8043018D0BAF10F0F40F20081AAF122
:104AA0000C00696820F007004FF0050C05EB000EC4
:104AB0000F2801F0010140EA01016960CEF804C04D
:104AC000CEF808C000F2188140F2D852D9F82C1064
:104AD000C2F20002B5688B42D9F8301088BFD362A9
:104AE00040F2D852C2F200028B4288BF13636A6858
:104AF00022F003029442C4EB020301D80F2B05DC21
:104B000038464FF0000800F003FA93E62A1943F004
:104B10000103384644F001046C6005F10808B260F6
:104B2000536000F0F5F9404603B0BDE8F08F19443A
:104B3000DA689C6838464D6803F10808E26045F081
:104B4000010594604D6000F0E3F9404603B0BDE814
:104B5000F08FBCF1140F9CBF0CF15B0C4FEA4C05BD
:104B60007FF674AEBCF1540F00F28F804FEA143C14
:104B70000CF16E0C4FEA4C0568E6420A042A58D93B
:104B8000142A9CBF02F15B014D0005D9542A00F2A2
:104B9000BC80010B6E314D0006EB850540F29C1880
:104BA000C2F20008AA68AA427FD0516821F003012E
:104BB000884202D292689542F7D1D0687168D86075
:104BC0009A608360D3608AE61D1941F0010644F0C3
:104BD000010438465C6003F1080855611561C5F8A9
:104BE0000CE0C5F808E06E60695000F091F921E62C
:104BF00009F10109083019F0030F7FF489AE28E0AC
:104C000003F108025B699A4208BF0CF1020C3FF401
:104C100037AEFEE590461544D368384658F8082F5D
:104C2000696841F001016960D3609A6000F070F931
:104C300000E6810938314D00AEE7B5423FF4E3AEFE
:104C4000B5686A6822F0030254E7D8F800809045FE
:104C50006DD11CF0030FA8F108020CF1FF3CF4D158
:104C6000726822EA030272605B0093423FF69BAED9
:104C7000002B3FF498AE1A42CC467FF445AE5B0061
:104C80000CF1040C1A42FAD03EE6BCF5AA7F18D803
:104C90004FEAD43C0CF1770C4FEA4C05D6E50123E2
:104CA0004546C8F80430002224E74FF001098D1072
:104CB000D8F80410104609FA05F52943C8F804107D
:104CC0007DE740F254539C4595BF4FEA944CFC2538
:104CD0000CF17C0C4FF07E0C98BF4FEA4C05B5E50B
:104CE000C2F30B0100297FF496AEB2680BEB0A0108
:104CF00041F001015160E7E605F1080138460192F3
:104D0000FFF778FB019A5368DEE6B2F5AA7F03D875
:104D1000C10B77314D003FE740F254518A4295BFB5
:104D2000810CFC257C317E2198BF4D0034E77268F0
:104D30009AE700BF8307C9B270B43FD0541E2AB3AC
:104D400003788B4223D0431C04E0FCB10578144661
:104D50008D421CD013F0030F184604F1FF3203F10B
:104D60000103F2D1032C14D8651E4CB303788B4297
:104D70000DD0421C002302E004788C4207D0AB42E5
:104D8000104603F1010302F10102F5D1002070BCCD
:104D9000704741EA0126034646EA064618460433B0
:104DA00002687240A2F1013525EA020212F0803F4A
:104DB000DAD1043C1846032CF0D8D5E71446D1E7E5
:104DC0002046E4E70F2AF0B445D940EA01039B07E7
:104DD00045D1A2F110070C4603463F0900EB071628
:104DE000103625681033103443F8105C54F80C5C0E
:104DF00043F80C5C54F8085C43F8085C54F8045C15
:104E000043F8045CB342ECD17B1C02F00F0CBCF104
:104E1000030F4FEA03131944034422D90E461D46DB
:104E2000644656F8047B043C032C45F8047BF8D810
:104E3000ACF1040402F0030224F00304043423441C
:104E4000214432B10A4411F8014B914203F8014B5D
:104E5000F9D1F0BC70470346002AF3D1F9E70346C5
:104E6000F0E76246002AEDD1F3E700BF8307F0B414
:104E700048D0541E002A43D0CDB2034602E0002C95
:104E80003ED0144603F8015B13F0030F04F1FF3228
:104E9000F5D1032C2DD9CDB20F2C45EA052545EAD5
:104EA000054518D9A4F1100703F110061A463F0969
:104EB00006EB07161560103242F80C5C42F8085CED
:104EC00042F8045CB242F5D104F00F040137032C20
:104ED00003EB07130DD91E462246043A46F8045B3D
:104EE000032AFAD8221F04F0030422F0030204323A
:104EF00013442CB1C9B21C4403F8011BA342FBD1DB
:104F0000F0BC704714460346C3E700BF704700BFBC
:104F1000704700BF70B50646446A0D4664B1E2684A
:104F20009AB152F82530E3B1196842F825100022F1
:104F300018461A61DA6070BD1020FFF733FC70620A
:104F4000446084600460C460044621223046042129
:104F500001F0BCFD736AE060DA68002AE1D100204C
:104F600070BD01233046194603FA05F4621D920014
:104F700001F0ACFD03460028F1D045608460D6E71F
:104F800030B50446456A83B055B139B1636A4A68A1
:104F9000DB6853F82200086043F8221003B030BDEC
:104FA00010200191FFF7FEFB01996062456085606A
:104FB0000560C560E9E700BF2DE9F0478846D1F8F4
:104FC00010A082B0814601F1140500242F6801343D
:104FD000A245BEB24FEA174702FB063602FB07F3B3
:104FE00003EB1643B6B206EB03464FEA134345F80C
:104FF000046BEBDC53B1D8F8082092450ADA08EBD1
:105000008A010AF101024B61C8F81020404602B043
:10501000BDE8F087D8F80410484601930131FFF746
:1050200079FFD8F8102008F10C01023292000446F2
:105030000C30FFF7C7FE41464846A046FFF7A0FFE9
:10504000019BDCE72DE9F843994648F6396309F1FD
:105050000805C3F6E3030C460746904683FB051399
:10506000ED17089EC5EB6303012B35DD01250021FB
:105070006D000131AB42FBDC3846FFF74BFFB8F166
:10508000090F4FF00103DCBF0A344FF009084661F5
:10509000036110DD04F109064444354615F8013B6F
:1050A00001460A223846303BFFF786FFA542F5D17C
:1050B00006EB0804083CC1450CDDC8EB0908A04418
:1050C00014F8013B01460A223846303BFFF774FFD3
:1050D0004445F5D1BDE8F8830021CDE7030C06BFB8
:1050E00000041023002310F07F4F04BF0002083398
:1050F00010F0704F04BF0001043310F0404F04BFA4
:1051000080000233002805DB420001D420207047D4
:10511000581C7047184670470368024613F0070092
:1051200009D0D90721D498074BBF5B089B08012001
:1051300002201360704799B209B91B0C102013F0BC
:10514000FF0F04BF1B0A0830190704BF1B090430F6
:10515000990704BF9B080230D90704D45B0801D12A
:10516000202070470130136070470020704700BF57
:1051700010B50C460121FFF7CDFE0122446102610A
:1051800010BD00BF2DE9F04F0C460E6985B01569C2
:105190009346AE4204DA32465C462E468B461546AE
:1051A000A36806EB050961689945C8BF0131FFF79F
:1051B000B1FE00F1140A02900AEB890101918A45BF
:1051C00006D2019A5346002043F8040B9A42FBD8BA
:1051D0000BF1140B14340BEB85050094AB4504EB79
:1051E00086063CBFCDF80C90A94654D25BF8043B30
:1051F0009CB2002C64D0009952460025A44600E0E1
:105200001A4651F8044B134617688E421FFA84F869
:105210004FEA1444B8B24FEA17470CFB08080CFBDE
:105220000470454400EB1540ADB245EA00444FEA36
:10523000104543F8044BE3D855605BF8044C240C4C
:1052400023D0DAF800105046009B00270D4600E0FE
:105250001046B3F800C02D0C024689B204FB0C5571
:105260002F4441EA074142F8041B416853F804CB3C
:105270000D4689B29E424FEA1C4C04FB0C1101EB17
:1052800017414FEA1147E3D84160D9450AF1040AB2
:10529000ACD8DDF80C90B9F1000F0ADD019B043B9E
:1052A0001A681AB105E053F8042D12B9B9F10109D1
:1052B000F9D102990846C1F8109005B0BDE8F08F09
:1052C0001C46BCE712F003032DE9F043144683B0FB
:1052D00007460E462BD1A4101CD07B6A002B32D07F
:1052E0009D68002D3AD04FF0000904E0641011D001
:1052F000286898B10546E007F8D531462A46384671
:10530000FFF740FF314680463846FFF739FE64100C
:105310004646EDD1304603B0BDE8F0833846294615
:105320002A46FFF72FFF2860C0F80090E2E748F612
:10533000D0325D1EC0F60002002352F82520FFF790
:105340003BFE0646C7E710200193FFF72BFA019BAF
:105350007862436083600360C3600346012138467E
:105360000193FFF7D7FD019B40F2712201214261B9
:1053700005460022016198600260B4E72DE9F84F0C
:1053800093460A690F464FEA6B158B6805EB0209D5
:10539000804609F1010649689E4203DD5B00013148
:1053A0009E42FBDC4046FFF7B5FD002D824600F132
:1053B000140409DD002322461946013342F8041B78
:1053C000AB42FAD104EB83043A691BF01F0B07F1DF
:1053D000140303EB82021FD0CBF1200E002000E06B
:1053E0002C461968254601FA0BF1084345F8040BD1
:1053F00053F8040B934220FA0EF0F1D3606008B129
:1054000009F102064046013E3946CAF81060FFF72E
:10541000B7FD5046BDE8F88F53F8041B9A4244F894
:10542000041BEFD953F8041B9A4244F8041BF3D829
:10543000E8E700BF02690B6910B4D21A18BF104622
:1054400012D19A00143014318318114401E09842AB
:105450000DD253F8042D51F8044DA242F7D09442D6
:1054600094BF01204FF0FF305DF8044B70470020DF
:105470005DF8044B704700BF2DE9F84F884605469C
:10548000114640461446FFF7D5FF061E5FD0BCBF4D
:105490004346A0462846B8BF1C46D8F80410ACBF07
:1054A00000260126FFF736FDD8F810C004F11409D4
:1054B000226908F1140844464D4608EB8C0809EBB4
:1054C00082090022824600F11403C66054F8047B6E
:1054D00055F8040B2146BEB2A94532441FFA80FBA1
:1054E000CBEB02064FEA1042C2EB174202EB264218
:1054F000B6B246EA02464FEA224243F8046BE5D8C8
:10550000A0451D4616D951F8040B884586B24FEACE
:105510001040324400EB224092B242EA00464FEA89
:10552000204243F8046BEED8E343434423F00303E3
:1055300004332B44043B2EB953F8042D0CF1FF3CEB
:10554000002AF9D05046CAF810C0BDE8F88F2846A6
:105550003146FFF7DFFC012203465E611A61BDE8B8
:10556000F88F00BF0023C7F6F0730B40A3F1507310
:10557000002B02DD1946002070475B421B15132BE0
:105580000BDD322B4FF00001DBBF0122C3F13303EF
:10559000012302FA03F3184670474FF4002200205B
:1055A00042FA03F1704700BFF8B500F11406046930
:1055B00006EB8404271F54F8045C2846FFF78EFD91
:1055C0000A28C0F120030B6018DCBE42C0F10B01B9
:1055D00025FA01FC00F1150034BF54F8084C0021F5
:1055E00005FA00F54CF07F5C4CF4401338BF24FA08
:1055F00001F141EA050219461046F8BDBE4236BF28
:10560000A4F10807002154F8081CB0F10B0419D0CC
:10561000A540C0F12B00B74245F07F5521FA00FCB0
:1056200045F4401545EA0C038CBF57F8045C002094
:1056300001FA04F188BF25FA00F040EA0102194698
:105640001046F8BD45F07F550A4645F44013104614
:105650001946F8BD2DE9F04182B001211D46C3F382
:105660000A561446089FFFF755FCC5F313038446FA
:105670000EB143F48013019324B302A840F8084DFF
:105680006846FFF749FD002834D1009B0199CCF80A
:105690001430CCF8181000290CBF01210221CCF8DD
:1056A0001010DEB90CEB8103A0F2324038601869AB
:1056B000FFF714FD099BC0EB41101860604602B073
:1056C000BDE8F08101A8FFF727FD019B0121CCF87F
:1056D00014302030CCF81010002EE3D0099AA6F236
:1056E0003348C0F13503404438606046136002B06F
:1056F000BDE8F081019BC0F12004009A03FA04F494
:10570000C340224319460193CCF81420C1E700BFDF
:105710002DE9F04383B0884669460646FFF744FF0B
:105720000D46044601A94046FFF73EFFD8F810E0B9
:105730002F46024630690B468946CEEB000E9DE8A7
:105740000300C1EB000C0CEB4E110029C9BF05EBA7
:105750000157A3EB015924463D46DCBF12464B4698
:105760002046294602F028FC03B0BDE8F08300BFC4
:10577000172810B504460CDD00210020C3F6F07197
:1057800000230022C4F2240302F0ECFA013CF7D11A
:1057900010BD48F6D033C0F6000303EBC003D3E9D5
:1057A000040110BD70B40139156902F114034E11E2
:1057B000013603EB8505AB4200EB86060CD20146B1
:1057C00053F8044B9D4241F8044BF9D8AB1A153BF2
:1057D00023F0030304331844864204D9002340F81D
:1057E000043B8642FBD870BC704700BF03694A1176
:1057F00010B4934200F11404B8BF04EB830313DB2D
:1058000010DD11F01F010DD054F8220004EB8203CB
:1058100020FA01F202FA01F1814205D001205DF87F
:10582000044B704704EB82039C420AD253F8042CC9
:10583000043B22B1F2E753F8042D002AEED19C423A
:10584000F9D300205DF8044B704700BF50EA010314
:1058500001D102207047D0F1010338BF0023B1F11C
:10586000004F08BF0028F4D021F000414FF6FF722E
:10587000A1F58010C7F6DF72904201D8042070476E
:10588000B1F5801F01D2032070470020C7F6F070E9
:10589000814214BF002003F00100704738B540F288
:1058A0004C64C2F200040546084600232360FBF75F
:1058B00099FD431C00D038BD2368002BFBD02B6022
:1058C00038BD00BF10B50C46B1F90E1001F056FC02
:1058D0000028ABBF636DA3891B1823F48053ACBFB2
:1058E0006365A38110BD00BF002070472DE9F04122
:1058F0000C4689891D4616460746CB0506D5B4F9E0
:105900000E100022022301F0BBFBA18921F480517B
:105910003846A1813246B4F90E102B46BDE8F0415D
:1059200001F0BEB810B50C46B1F90E1001F0A8FB9D
:10593000A389421C16BF606523F4805343F480534F
:10594000A38110BDB1F90E1001F0F2B840EA010CCC
:105950001CF0070F27D1BDF1100DCDE90245CDE9AF
:1059600000676FF000064FF0000700BFF0E8022369
:10597000F1E80245A242A2F1013C2CEA020C0CF033
:10598000803C08BFBCF1000F40F0E580AB42A3F1C2
:10599000013C2CEA030C0CF0803C08BFBCF1000F6A
:1059A00040F0D680E2E710F0030C21D020F0030095
:1059B00050F8042B5FEACC7C08D00FD211F801CB51
:1059C0005FFA92F3B3EB0C0C10D17BB111F801CB61
:1059D0005FFAA2F3B3EB0C0C08D13BB111F801CB89
:1059E0005FFAB2F3B3EB0C0C00D10BB96046704711
:1059F000BDF1100DCDE90245CDE900676FF000065D
:105A00004FF0000711F0030C33D110F0040F0FD04A
:105A100050F8042B51F8044BA242A2F1013C2CEAAD
:105A2000020C0CF0803C08BFBCF1000F40F09380EA
:105A300011F0040F99D051F8045B00BFF0E8022385
:105A4000AA42A2F1013C2CEA020C0CF0803C08BFF7
:105A5000BCF1000F79D1F1E80245A342A3F1013C6A
:105A60002CEA030C0CF0803C08BFBCF1000F69D19C
:105A7000E4E721F00301BCF1020F20D03FDA51F836
:105A8000045B00BF50F8043B4FEA1525A3F1013C2D
:105A90002CEA030C0CF0803CB7EB0C2F03EA162227
:105AA00008BFAA4251D151F8045BBCF1000F82EA51
:105AB00003034FEA056208BF934240D1E2E751F881
:105AC000045B00BF50F8043B4FEA1545A3F1013CCD
:105AD0002CEA030C0CF0803CB7EB0C4F03EA1642A7
